:020000040800F2
:1000000018070020010300083F030008410300080F
:1000100043030008450300084703000800000000F0
:10002000000000000000000000000000490300087C
:100030004B030008000000004D030008292B0008B6
:100040005103000851030008510300085103000840
:100050005103000851030008510300085103000830
:100060005103000851030008510300085103000820
:100070005103000851030008510300085103000810
:100080005103000851030008510300085103000800
:1000900051030008510300085103000851030008F0
:1000A00051030008510300085103000851030008E0
:1000B00051030008510300085103000851030008D0
:1000C00051030008510300085103000851030008C0
:1000D00051030008510300085103000851030008B0
:1000E00051030008510300085103000851030008A0
:1000F0005103000851030008510300085103000890
:10010000510300085103000851030008510300087F
:10011000510300085103000851030008510300086F
:10012000510300085103000851030008510300085F
:10013000510300085103000851030008510300084F
:10014000510300085103000851030008510300083F
:10015000510300085103000851030008510300082F
:10016000510300085103000851030008510300081F
:10017000510300085103000851030008000000006B
:10018000510300085103000800F002F800F0A8F83D
:1001900014A696E8000CB244B344DA4501D100F04D
:1001A0009FF8BAE80F000FA696E83000A5EB04050B
:1001B00004EB0607AAEB0704A7F101074FEA1515A0
:1001C0004FEA3414A4F10104AC4201D300F088F8E2
:1001D00013F0010F18BFFB1A43F0010300F001F800
:1001E000DBE718478C420000AC420000103A24BF05
:1001F00078C878C1FAD8520724BF30C830C144BF8C
:1002000004680C6070470000704700000023002461
:1002100000250026103A28BF78C1FBD8520728BF16
:1002200030C148BF0B6070476E2900F06D817029A6
:1002300000F0A782662903F0F087652903F0ED87B7
:10024000672903F0EA87612903F0E98703681B0A3D
:1002500028BF41F08001692900F01A81642900F06B
:100260001781752900F014816F2900F035827829F3
:1002700000F07382E92900F0CF81E42900F0CC81FD
:10028000F52900F0C981EF2900F03282F82900F049
:1002900072820368DB0928BF41F08001632901F005
:1002A000DB82732901F0E082E32901F0EB82F3297C
:1002B00001F0F082002070471FB503F099FF01F0B4
:1002C0003DFE04000020002103F08AFD401C606018
:1002D0000020002103F06EFDE0601FBD10B510BDD1
:1002E00001F0FFFD1146FFF7E7FF02F0E3FE02F029
:1002F000DDF803B4FFF7F2FF03BC02F063FB00007C
:1003000017481849184B99423CBF50F8042B41F844
:10031000042BF8D3154B16494FF000028B4238BF1F
:1003200043F8042BFAD3DFF84C00016841F4700164
:100330000160BFF34F8FBFF36F8F0F480047FEE799
:10034000FEE7FEE7FEE7FEE7FEE7FEE7FEE7FEE785
:10035000FEE7000009480A490A4A0B4B70470000B3
:10036000D045000800000020080000200800002000
:100370001807002088ED00E089010008180100201E
:100380001807002018030020180300200FB40449A8
:1003900010B503AA029800F0CBF810BC5DF814FB6E
:1003A000BC0000200FB400B589B00BA86A460090CD
:1003B00003480A9900F082FC09B05DF814FB0000C4
:1003C0006800002070477047704770B50446856923
:1003D0000068C10601D5302600E02026C00707D0FE
:1003E00070BDD4E9012130469047206A401C20624C
:1003F0006D1EF6D570BD70B5044685690078C007DE
:1004000007D170BDD4E9012120209047206A401C0B
:1004100020626D1EF6D570BD09684A0501D540B24F
:100420007047C905FCD500B2704709684A0501D577
:10043000C0B27047C905FCD580B2704770B50C4694
:100440000546012A05D02878800600D5EA690023F0
:1004500002E0012305E05B1C934202D2E05C00282D
:10046000F9D1A869E618C01AA861286A1844286258
:100470002846FFF7AAFF04E0D5E9012114F8010B93
:100480009047B442F8D32846FFF7B5FF70BD00008F
:100490002DE9F0410646002410687529314616A55D
:1004A00010D0FFF7B9FF002802DA404213A507E099
:1004B00031688A0701D512A502E0490704D511A5C4
:1004C000012401E0FFF7B1FF00210A2206F1240711
:1004D00009E0B0FBF2FCB0FBF2F302FB1C00303091
:1004E00078541846491C0028F3D123462A46304642
:1004F000BDE8F04100F0A2BD000000002D000000AA
:100500002B0000002000000011680268006A5305FB
:1005100001D508700AE0D30501D5088006E013066E
:1005200003D5C217C1E9000200E00860012070474E
:10053000074B70B50D467B4401F071F9044628461F
:1005400001F087FC10B14FF0FF3070BD204670BD48
:10055000432B00002DE9FF5F15468A460446DFF86D
:10056000AC80F8440027D8E900103E46CDE90010E1
:1005700010E03AF816106A4602A801F08EFC411C01
:1005800007D02178890603D5E269391891420DD840
:100590000744761C2078800602D5E069B84205DD64
:1005A000AE42E6DB3AF816000028E2D1A069C01B93
:1005B000A0612046FFF709FFD8E90010CDE900103F
:1005C000002017E03AF818106A4602A801F065FC0E
:1005D000B0F1FF3F81460BD000250DF1080B05E07F
:1005E000D4E901211BF8050090476D1C4D45F7D358
:1005F00008F10100B0428046E4DB206A3844206202
:100600002046FFF7F8FE00F003B80000BA3D0000F6
:100610003FBCBDE8C09F00002DE9F0418046D21DDF
:1006200022F007020025D2E90002F52915A614D010
:10063000011E72F1000106DA0023D0EB030063EB28
:10064000020211A608E0D8F800108B0701D50FA60A
:1006500002E0490701D50EA601251146002408F144
:10066000240704E000F0A5FC30323A55641C50EA3F
:100670000102F7D12B46324621464046BDE8F04103
:1006800000F0DCBC000000002D0000002B0000008A
:100690002000000030B4002100F1240408E002F042
:1006A0000705D208303542EA4372DB086554491C1D
:1006B00052EA0305F3D10468002310A2250708D5E8
:1006C00004F020040C4304D0C46901230CA2641E6E
:1006D000C46130BC00F0B2BC10B5044621461068BD
:1006E000FFF7A3FE02462046BDE810400023D1E7F5
:1006F000D21D22F00701D1E90023CBE70000000062
:1007000030000000F0B40D460188090502D5214CE7
:100710007C4402E01F4C7C440E34002100F124068E
:1007200008E002F00F071209E75D42EA03721B09B5
:100730007754491C52EA0307F3D1027800231207C9
:1007400004D5702D06D009B1022311342246F0BC25
:1007500000F074BC01231034F8E770B504460D4670
:1007600021461068FFF761FE024629462046BDE893
:1007700070400023C6E7D21D22F00703D3E900230F
:10078000C0E70368126843F0200303600823C361D5
:100790000023B7E7143C00002DE9F05F89460446CA
:1007A0004FF0000ADFF874B1FB44C0F820A02046E7
:1007B000E1688847002874D0252806D0D4E90121B3
:1007C0009047206A401C2062F1E700265F462046E1
:1007D000E16888472028054607DB312D05D27819C6
:1007E00010F8200C08B10643F1E7B00701D526F058
:1007F0000406C4F81CA00027C4F818A02A2D09D0AC
:10080000284603F088FA38B304EB8708303DC8F86F
:10081000185019E059F8041B204604EB8702916137
:10082000E1688847012F054618D1E069002820DAE1
:1008300026F020061DE0D8F8180000EB800005EB3C
:1008400040003038C8F818002046E168884705465F
:1008500003F061FA0028EED1012F0AD02E2D08D125
:100860002046E16888477F1C0546022F46F0200697
:10087000C4DBA069002803DA404246F00106A0610B
:10088000F00701D026F010066C2D0BD0682D09D092
:100890004C2D39D06A2D35D0742D35D07A2D33D0EA
:1008A00016E038E0E1682F4620468847B842054602
:1008B00009D16C2F26D04FF48060E16806432046B2
:1008C0008847054604E06C2F1AD04FF48070064329
:1008D0000DB3A5F14100192802D8203546F4006671
:1008E0004A462946204626604E46FFF79DFC80B1C9
:1008F00001280BD0F61D26F0070000F1080956E785
:100900004020E4E78020D8E70020D6E706F104097C
:100910004DE7284652E7206A00F002B8A43B0000E9
:1009200030BCBDE8C09F2DE9FF4F1C4691464FF0FB
:10093000FF3581B000218A468846D4E90167A16964
:1009400002986D1C8847216A834688470028F6D1A3
:10095000BBF1FF3F0CD0002F26F4C0661ADD7006F5
:1009600015D5BBF12B0F0AD0BBF12D0F0FD104E031
:100970004FF0FF3005B000F081B846F48066A16901
:1009800002986D1C88477F1E8346002F02DDBBF155
:10099000300F03D0B9F1000F2AD025E0A1696D1CFA
:1009A00002987F1E46F400768847002F834605DDB7
:1009B000BBF1780F06D0BBF1580F03D0B9F1000F8F
:1009C00010D011E0B9F1000F02D0B9F1100F0BD126
:1009D000A1696D1C02987F1E26F400768847834625
:1009E000102000E0082081464FEAE970009017E0EF
:1009F0000A20F8E74346AAFB0928DDF800C07F1E5D
:100A000003FB098046F4007605F101050AFB0C01A1
:100A100012EB0B0A029841EBEB78A16988478346F9
:100A2000002F06DD4946584600F038FF5FEA000B0C
:100A3000E0D5E16902988847B00502D46FF0010063
:100A400098E7F00718D1700610D55146700505D506
:100A50000023D1EB030163EB080200E0424620686B
:100A6000031D23600068C0E9001205E02068011D35
:100A700021600068C0E900A828467BE730BCBDE8DB
:100A8000C08F2DE9FF5F1D464FF0FF3B91464FF0B1
:100A900000085F46D5E90146A96901987F1C88478F
:100AA000296A824688470028F6D1BAF1FF3F0CD068
:100AB000002E24F4C06419DD600614D5BAF12B0FA2
:100AC00009D0BAF12D0F0ED103E0584604B000F062
:100AD0007EB844F48064A96901987F1C8847761E1B
:100AE0008246002E02DDBAF1300F03D0B9F1000FBB
:100AF00026D032E0A969761E01987F1C44F4007468
:100B00008847002E824605DDBAF1780F06D0BAF18B
:100B1000580F03D0B9F1000F10D01EE0B9F1000F4B
:100B200002D0B9F1100F18D1A969761E01987F1C67
:100B300024F4007488478246102002E0082000E078
:100B40000A20814609E0A96908FB0908761E019878
:100B50007F1C44F4007488478246002E05DD494618
:100B6000504600F09BFE0028EDDAE96901988847BD
:100B7000A00502D46FF00100A8E7E00725D16006C8
:100B800013D5600502D5C8F1000000E04046296891
:100B90000A1D2A600968220501D5087015E02207A0
:100BA00001D5088011E008600FE02868011D296068
:100BB0000068210502D580F8008006E0210702D5F3
:100BC000A0F8008001E0C0F8008038467EE730BC25
:100BD000BDE8C09F2DE9FF5F4FF00008994614461D
:100BE00046469169D2E901A7DDF838B001988847F7
:100BF000054659EA0B0005D009E0A1690198761C69
:100C000088470546216A284688470028F5D1681C90
:100C100003D05FEACA7005D015E04FF0FF3004B092
:100C200000F048B82068011D2160D0F800800AE07B
:100C30005FEACA7001D108F8015BA169761C0198CE
:100C40007F1E88470546002F1ADD681C18D0B9F1B1
:100C5000000F0DD0E81705EBD060421120F01F0007
:100C600059F822102A1A012090400142E0D107E0F1
:100C7000BBF1000FDCD12846216A88470028D7D075
:100C8000E16901988847BBF1000F07D1002E05DD0F
:100C90005FEACA7002D1002188F80010A068B8424B
:100CA00003DDBBF1000F03D017B16FF00100B6E711
:100CB0003046B4E730BCBDE8C09F0000034B7B4426
:100CC0009361034B7B44D36101F080B89B23000008
:100CD000451100002DE9FF4F4FF000089A461446D9
:100CE000C146464683B0D2E901B7CDF80080CDF8C1
:100CF0000480916904988847109905465AEA0100D2
:100D000005D009E0A1690498761C88470546216A48
:100D1000284688470028F5D1681C03D05FEACB70CD
:100D200005D02AE04FF0FF3007B000F05DB8206832
:100D3000011D2160D0F800801FE002A86A46E9B2D8
:100D400001F08BF8411C07D0801C09D04FF000093E
:100D50005FEACB7007D00AE0E169049888473EE07B
:100D60004FF0010904E0BDF8081028F8021B7F1EAF
:100D7000A1690498761C88470546002F1ADD681C77
:100D800018D0BAF1000F0DD0E81705EBD060421172
:100D900020F01F005AF822102A1A01209040014228
:100DA000CBD107E010980028C7D12846216A884790
:100DB0000028C2D0E16904988847B9F1000F0ED12C
:100DC000109830B9002E04DD5FEACB7001D1A8F88D
:100DD0000000A068B84202DD109818B117B16FF09A
:100DE0000100A1E730469FE730BCBDE8C08F2DE988
:100DF000FF4F4FF000089B461446454683B0D2E9AA
:100E00000196CDF80080CDF804809169DDF848A006
:100E10000498884707465BEA0A0005D009E0A16903
:100E200004986D1C88470746216A38468847002881
:100E3000F5D1781C03D05FEAC97005D01BE04FF0F4
:100E4000FF3007B000F047B82068011D2160D0F8DE
:100E5000008010E05FEAC97007D16A464046B9B227
:100E600001F01BF8411C31D08044A1696D1C04982D
:100E7000761E88470746002E14DD781C12D0BBF181
:100E8000000007D03B46DDE9101200F0AFFF00285C
:100E9000E0D107E0BAF1000FDCD13846216A88477B
:100EA0000028D7D0E16904988847BAF1000F06D12D
:100EB000002D04DD5FEAC97001D188F80000A06848
:100EC000B04203DDBAF1000F03D016B16FF001009C
:100ED000B7E72846B5E730BCBDE8C08F2DE9FF5F16
:100EE0009B46144600273D469169D2E90196DDF8FC
:100EF00040A00198884780465BEA0A0005D009E0D7
:100F0000A16901986D1C88478046216A4046884740
:100F10000028F5D1B8F1FF3F03D05FEAC97005D0D2
:100F200014E04FF0FF3004B000F040B82068011D1D
:100F3000216007680AE05FEAC97001D127F8028BD7
:100F4000A1696D1C0198761E88478046002E15DD2C
:100F5000B8F1FF3F12D0BBF1000007D04346DDE9F6
:100F60000E1200F043FF0028E5D107E0BAF1000FB0
:100F7000E1D14046216A88470028DCD0E169019828
:100F80008847BAF1000F05D1002D03DD5FEAC97073
:100F900000D13880A068B04203DDBAF1000F03D061
:100FA00016B16FF00100BEE72846BCE730BCBDE8D3
:100FB000C09F30B5B0F10A0271F100034FEA900E04
:100FC0004EEA817EB0EB0E0061EB91014FEA101EFC
:100FD0004EEA017E10EB0E0041EB11114FEA102E8C
:100FE0004EEA016E10EB0E0041EB11214FEA104E5C
:100FF0004EEA014E10EB0E0041EB1141401841F159
:1010000000014FEAD00040EA41704FEAD1014FEAB7
:10101000810444EA907410EB800544EB01046D19DF
:1010200044EB0404521BA3414FF0000348BF0A32B3
:1010300000D530BD401C41F1000130BD2DE9F04725
:101040000D4699469246044600F124080168880638
:1010500004D5E06921F01001216000E00120A842E0
:1010600001DD471B00E00027A1697A1902EB0900A6
:10107000081AA0612078C00602D42046FFF7A5F91F
:10108000002608E0D4E901211AF806009047206AFA
:10109000401C761C20624E45F4DB2078C0060AD541
:1010A0002046FFF792F906E0D4E90121302090476D
:1010B000206A401C2062381EA7F10107F4DC07E01B
:1010C000D4E9012118F805009047206A401C2062ED
:1010D000281EA5F10105F3DC2046FFF78CF92078E6
:1010E000000602D50220BDE8F0870120FBE72DE9CC
:1010F000FF4F0C461E464FF0FF378BB0D2E9000180
:10110000DDF860800A908A46C1F30A5505B93D466C
:10111000002108464FF00000BAF1000F00F4400033
:1011200005DA00EB80004FF4400101EA50004FEA7D
:101130009059B9F1010F00DDB9460A9850EA4A000A
:101140000ED044F61050A5F2FF3545432F14B8F1E8
:10115000000F1ED07542291E1EDDC9F100021CE0E1
:10116000B8F1010F4FF0000001D0302103E0F2434D
:1011700005E02154401CB042FBDB30460022002138
:1011800021540B99C1F80880C1E900200FB000F08C
:10119000BCB9BD1B6D1CDEE74A4600DA694206A8F1
:1011A00001F0EEF806AB93E8070003AB83E8070015
:1011B00050460A9902F04AF88DE80700A0F5005061
:1011C0001F3800900398002D0ADD42F21F014A46A5
:1011D0000844002303A90390684602F0F5FA09E0E9
:1011E000A0F500504A461F38002303A90390684623
:1011F00002F014FB8DE807000004000C03D04FF050
:10120000FF30410800E01046B8F1000F03D0002283
:10121000009215461EE0751E05D4FFF7CAFE303257
:1012200062556D1EF9D5B3460122084302D0002253
:101230007F1C04E02078302801D100227F1E002A84
:10124000099784D01DE0112D07DAFFF7B2FE303286
:1012500062556D1C50EA0102F5D1084302D0009896
:10126000C8B10EE00021681E05E0235C625C635497
:101270002254401E491C8142F7DBAB46A81B401E8E
:101280000990002004F80B000B98099AC0F8088018
:10129000C0E9002B7AE711264FF0000857E72DE947
:1012A000F04F88460446D21D22F0070191B0D1E9E3
:1012B0000001CDE90A0102F0FDFB02460B98C00FC8
:1012C00001D02D2007E02068810701D52B2002E006
:1012D000202101EAC000032A099001D0072A05DB7A
:1012E00003464146204600F04DFE0BE12078800683
:1012F00001D5E06900E00620B8F1650F814606D00F
:10130000B8F1660F18D0B8F1670F70D131E0002046
:10131000B9F1110F009001DB112301E009F1010384
:101320000AAA01A90CA8FFF7E2FEDDE90C7000266D
:1013300009F10105834647E001204B4600904FF03C
:1013400000470AAA01A90CA8FFF7D1FEDDE90DB0FC
:101350000C995D46002610B909F101000D18B9EB92
:10136000050003D4C0F1FF3609F10105A5EB090022
:101370002BE0B9F1010F01DA4FF001090020B9F1BA
:10138000110F0090484601DD112300E003460AAA30
:1013900001A90CA8FFF7ABFEDDE90C704D46002655
:1013A0008346207800070AD4AB4500DA5D4601A8E1
:1013B000012D04DD411911F8011C302907D04F45DA
:1013C00002DA17F1040F04DA012082460FE06D1EE5
:1013D000EEE7002F02DCED1B3E4403E0781CA84240
:1013E00000DD7D1CB81B00F1010A4FF0004720789A
:1013F000000703D4AA4501DB4FF0FF3A0021B7F103
:10140000004F0DF143088DF8431024D002202B2308
:10141000002F01DA7F422D230A21021EA0F10100D4
:1014200000DC5FB197FBF1FC97FBF1F201FB1C7C48
:1014300017460CF1300C08F801CDEEE7A8F10100D9
:1014400003702188090501D5452100E06521A0F13F
:10145000010800F8011C09980FA9A1EB0807FF1D5E
:1014600000B10120411901EBEA70A1693844081A62
:10147000401EA0612078C00602D42046FEF7A5FFDA
:10148000099828B1D4E901219047206A401C2062C4
:101490002078C00622D52046FEF797FF1EE0002EDA
:1014A00004DBB34502DD01A8805D00E03020D4E913
:1014B00001219047206A401C2062761CAAF101009D
:1014C0005FEA000A0AD100F039FDC0680168405C9B
:1014D000D4E901219047206A401C2062281EA5F112
:1014E0000105DCDC07E0D4E9012118F8010B904785
:1014F000206A401C2062381EA7F10107F3DC204659
:10150000FEF779FF032011B041E630BCBDE8C08F83
:101510002DE9F04F04460D46D21D22F0070089B098
:10152000D0E900974846394602F0C4FA0246F80F5F
:1015300001D02D2307E02068810701D52B2302E08D
:10154000202101EAC0038DF820300BB1012000E01A
:101550000020032A824601D0072A04DB29462046C0
:1015600000F010FD3FE12078800601D40D2500E059
:10157000E569C7F30A560D2D49DA00214FEA175BDA
:1015800008464FF00000002F00F4400007DA00EB9F
:1015900080004FF4400100EBD07001EA600081153B
:1015A000012901DD4FF0FF3100224FEA850CBCF12B
:1015B000180F06D31346ACF118004FF08052C2400A
:1015C00003E04FF4801323FA0CF30CF10C0CBCF184
:1015D000200F04D3ACF1200C09FA0CF001E007FA5B
:1015E0000CF000294FF0004801DD18B90FE00ED1D2
:1015F00040450CD319EB02095F4121B9404502D1A6
:101600009F4329EA0209BBEB175F00D0761C2088B4
:10161000000502D57B48784402E07A4878441938BE
:1016200008AA302302F80A30037C0AF10101002ED7
:101630000AF1020A53546A4602DC4FF0300101E01D
:101640004FF031014FF001088DF8001002D0A6F2E2
:10165000FF3603E059EA470100D06B4E002D02DC53
:101660002178090704D54FF002082E218DF80110CA
:10167000C44600210BE0C7F303433F01C35C491C90
:101680006D1E02F80830052908F1010801DA002D65
:10169000F1DC00210CE000EB1973491C1B786D1E76
:1016A000082902F808304FEA091908F1010801DA9F
:1016B000002DF0DC21688B0602D516E0A8F10108A8
:1016C000E04505DD02EB080313F8013C302BF5D0B3
:1016D000B8F1000F09DD02EB080313F8013C2E2BD3
:1016E00003D1090701D4A8F10108002D05DD3E2131
:1016F00002F808106D1E08F10108407C002E02F867
:10170000080008F1010804DA2D20764202F80800EA
:1017100002E02B2002F808000A214FF47A7086427A
:1017200008F101080BDB96FBF0F3303302F80830C8
:1017300096FBF0F308F1010800FB136601E0642E4C
:101740000CDB642096FBF0F3303302F8083096FB94
:10175000F0F308F1010800FB136601E00A2E06DB36
:1017600096FBF1F0303002F8080008F1010896FB12
:10177000F1F001FB1060303002F80800A16908F1B7
:10178000010808EB050202EB0A00081AA0612078A4
:10179000C00602D42046FEF718FE216A08AE01EB0F
:1017A0000A00206204E0D4E9012116F8010B9047F9
:1017B000BAF1010AF7D22078C00602D52046FEF71A
:1017C00004FE6E4609E016F8010B3E280FD0D4E95E
:1017D00001219047206A401C2062B8F10108F2D232
:1017E0002046FEF708FE09B0032000F00FB8206A7B
:1017F0002844206203E0D4E90121302090476D1E87
:10180000EBD3F8E75A2D000002FCFFFF30BCBDE827
:10181000C08F000001694A1C02610878704700B55A
:101820008FB0CDE901310021059105497944CDE919
:10183000031011466846FEF7AFFF0FB000BD000071
:10184000E5FFFFFF10B5436913B1AFF3008001E07E
:10185000FEF7F4FD012010BD127800F124010A709A
:1018600000224A700122EDE711684FF0FF32E9E7EC
:1018700010B5436913B1AFF3008001E0FEF76AFED3
:10188000012010BD128800F1240182840022C2844C
:101890000122EDE711684FF0FF32E9E73A2800D264
:1018A000303820F02002412A01D3A2F137008842CB
:1018B00001D34FF0FF3070472DE9FF4F06468BB044
:1018C0000878FF2806D0491C2D2805D000244FF0A9
:1018D000000908E000200CE00124F8E709EB890387
:1018E000491C00EB43090878FF28F7D114B1C9F16E
:1018F00000008146107800252C46AA4629462D284E
:1019000001D02B2804D1521C2D2813D00020824650
:101910008B461078FF280FD04FF0000C0A21521C84
:10192000A5FB017804FB018105FB0C11C5194BEBEC
:101930000104EEE70120EAE7002108464FF000002D
:10194000BAF1000F02D000EB80004008C0F38157CD
:10195000012F01DD4FF0FF370E9955EA040009EB26
:1019600001080BD04FF0020918F5FA7F16DA4FEA9A
:10197000CA70002F706008DD012007E04FEACA70CE
:10198000C6E900B00FB000F013BA0020306000F0DC
:10199000D9FAC0F800901821084616E0B8F5FA7F89
:1019A00018DD002F02DAF748784401E0F648784461
:1019B000D0E90010C6E9001040EACA70706000F07B
:1019C000C1FAC0F80090142108460FB000F0F3B936
:1019D00002F020BC002108464FF00000B8F10001E1
:1019E000099002DAC7F1000200E03A4601DAC8F1D4
:1019F000000106A800F0C4FC06AB93E8070003ABA7
:101A000083E8070044F23E005BEA04010090584678
:101A100004D144F21E012C465D460091210C0904BC
:101A2000014306D10099240444EA15442D041039D9
:101A3000009104F07F41014306D10099240244EA59
:101A400015642D020839009104F07041014306D15C
:101A50000099240144EA15742D01091F009104F036
:101A60004041014306D10099A40044EA9574AD00B9
:101A7000891E009104F00041084304D100986D19BB
:101A80006441401E00904FF001033A466846B8F1A9
:101A9000000FCDE9014503A902DD01F0D4FE01E00C
:101AA00001F0A7FEBAF1000F04460D4601D084F004
:101AB0000044002108464FF00000099940F2FF77EA
:101AC000484010F00C0F07D124F00040284303D009
:101AD000C4F30A50B84212D100F034FAC0F80090B2
:101AE000C4F30A50B8420AD1A8487844D0E900109B
:101AF000C6E9001004F000410843706042E7C6E9FF
:101B000000543FE72DE9FF4F1F464FF0000A4FF00A
:101B1000FF38454691B0D7E90146CDF83CA000F02A
:101B20000DFAC0680168405C1090B96912986D1C8C
:101B30008847396A814688470028F6D1B9F1FF3FC6
:101B40000AD0002E24F4D06411DDB9F12B0F08D097
:101B5000B9F12D0F0BD102E0404615B013E744F464
:101B60008064B96912986D1C8847761E81466005AD
:101B700004A901D52D2000E02B20002E01F1010B3E
:101B80000DF130088DF810003FDDB9F1690F08D074
:101B9000B9F1490F05D0B9F16E0F02D0B9F14E0F6E
:101BA0001CD13B4601A8009580E85002DDE91212E5
:101BB0006FF0020002F099FBC11CCED10EE0B969B2
:101BC00012986D1C884781461398761E44F4007461
:101BD00005600F98401C002E0F9016DDB9F1300FF4
:101BE000EDD0B9F1780F02D0B9F1580F0DD10F989F
:101BF00001280AD13B46CDE90054DDE91212001F4D
:101C0000029602F070FBC11CA7D1109989453ED104
:101C100044F0800406E01399681CAAF1010A44F418
:101C200000740860B9696D1C1298761E88473028C8
:101C30008146F0D02BE01099894505D1200603D4C8
:101C4000761E44F0800418E0484602F064F808B3B9
:101C5000761E0DF123029345A9F1300044F400747F
:101C600006D20BF8010B200607D5AAF1010003E00C
:101C7000200602D40AF101008246A00502D513997C
:101C8000681C0860B96912986D1C88478146002E4F
:101C9000D1DC53E0002E51DDB9F1650F02D0B9F16E
:101CA000450F4BD1A00549D5B9696D1C1298761E18
:101CB00024F440748847002E81460CDD2B2804D084
:101CC000B9F12D0F07D144F48074B96912986D1CD5
:101CD0008847761E8146E00501D52D2100E02B21A5
:101CE00008F8011BCDF8008021E0761E0DF13901C6
:101CF000884544F400740CD2A9F1300010F0FF00C4
:101D000088F8000002D10099884509D908F1010836
:101D100006E0E00501D51E4801E042F20F70824660
:101D2000B96912986D1C8847814613980560002E8A
:101D300004DD484601F0EFFF0028D6D1F96912987A
:101D40008847FF2053468BF8000088F800000020E9
:101D50000A900B9004AA0CA90AA8FFF7ADFDA005F4
:101D600002D46FF00100F8E614F0240F12D0E0075F
:101D70001CD13868DDE90A12031D3B600068C0E928
:101D8000001213E0EC2A0000DE2A0000A229000065
:101D9000F1D8FFFF0AA9684601F0AAFFE00705D1C4
:101DA0003868009A011D3960006802602846D4E650
:101DB00030BCBDE8C08F30BCBDE8C04FFFF708BEE7
:101DC000026811441378016018467047D1600549D4
:101DD000794451610449794411620021116111462D
:101DE00000F010B9EDFFFFFF9901000010B508E009
:101DF00030F8024B9C4204D10AB1002010BD0120F2
:101E000010BD491EF4D2104610BD704710B54FF0FA
:101E1000FF34C1688A020FD5036B42689A420BD126
:101E2000014690F82520104600F01CFB401C01D113
:101E3000204610BD002010BD11F0C00FF8D102697E
:101E400041689142F4D90268491E521CC0E9002140
:101E5000F0E7007B00F080007047F8B516460C46AE
:101E6000054600F063F8036893F80101012804D0E7
:101E7000185D78B101202C80F8BDD3F803013246FB
:101E8000214603F20313C71868460023B847009998
:101E90002980F8BD4FF0FF30F8BD2DE9F04116461E
:101EA0000C46054600F042F8036893F8010101284A
:101EB00007D0FF2C12D8185D80B101202C70BDE82E
:101EC000F081D3F807013246214603F20713C71801
:101ED0002846BC46BDE8F041002360474FF0FF3084
:101EE000EDE7754600F0ECFAAE460500694653464C
:101EF00020F00700854618B020B5FEF72BFABDE8A4
:101F000020404FF000064FF000074FF000084FF060
:101F1000000BAC46ACE8C009ACE8C009ACE8C009AD
:101F2000ACE8C00921F007018D46704710B500F0FC
:101F300005F8001D10BD00BFA91E00000048704735
:101F4000280000200048704708000020B2F120035C
:101F50000AD5C2F1200301FA02F120FA03F341EAA3
:101F6000030100FA02F0704700FA03F14FF000009D
:101F7000704710B50446FFF7D9FF0068005D00F018
:101F8000010010BD2DE9F0411F46044603260168FB
:101F9000072A01F4006004DB08B116A505E016A5C8
:101FA00003E008B115A500E015A521F010002060A0
:101FB000A069C01EA0610FB1401EA0612046FEF7BF
:101FC00004FA4FB1D4E9012138469047206A401CF9
:101FD0002062C01C206206E0206AFAE7D4E90121F1
:101FE00015F8010B9047761EF8D22046FEF703FA4B
:101FF000BDE8F0814E414E006E616E00494E4600D4
:10200000696E66002DE9F34F4FF0000A0C46564604
:102010008DB001200C9001F10C000B9062690B98BF
:1020200001219047051E2DD0252D2CD0216A8847EF
:10203000C0B162690B9801219047216A8847002846
:10204000F7D16269411E0B98904700E0761CA169A8
:102050000D988847216A88470028F7D1E1690D98D3
:102060008847DBE7A1690D988847A842074601D158
:10207000761CD3E7E1690D9888477F1C02D1BAF13D
:10208000000F6FD06BE162690B9800273D4639461F
:1020900090472A2804D162690B98012190470125B5
:1020A000DFF8D08262690B9801219047A0F13001DE
:1020B0000A290AD24745E5DC07EB870100EB410717
:1020C000303FDFD445F01005ECE7E90601D46FF0AE
:1020D00000476C280AD04C2814D0682815D06A28EC
:1020E0000DD074281CD07A281AD01DE062690B9894
:1020F000012190476C2802D045F0040514E045F01A
:1021000002050DE045F020050AE062690B98012107
:102110009047682802D045F0080505E045F40065C1
:1021200062690B9801219047C4E9015765283DD0A9
:1021300019DC58287AD00CDC452837D004DC252857
:1021400026D041289ED131E046282FD0472899D16A
:102150002CE05B2877D0612828D063287CD06428C5
:1021600023D15AE0F6E06F2848D008DC66281DD05D
:1021700067281BD0692821D06E2816D127E0702847
:1021800045D0732868D0752847D078280DD14DE008
:10219000A1690D988847252805463FF469AFE16994
:1021A0000D9888476D1C3FF46AAFD8E00D9923461F
:1021B0006A466FF0010002F094F8C5E045F0400077
:1021C00023464FF000026060A80736D43EE0E807DF
:1021D0007FF447AF2068011D21600068290501D503
:1021E00006701BE7290701D5068017E7A90703D565
:1021F000F117C0E9006111E706600FE745F0400004
:1022000023464FF008026060A80716D41EE040F68F
:102210000E0125EA0100606016E045F0400023460B
:102220004FF00A026060A80707D40FE045F04000B5
:102230006060A80708D5234610220D996FF00100B1
:10224000FEF771FB80E007E0102223460D996FF046
:102250000100FEF716FC77E04FF0000963284F46B7
:10226000C8464B46CB4602D05B2806D038E0E8068D
:1022700001D40120A060012732E06269D4F80CB0DB
:102280000B98012190475E2807D14FF0010949467C
:102290006269D4F80CB00B989047216939B90021D4
:1022A0000A4603AB43F82120491C0829FADBD8B3BE
:1022B000216949B308F1010862690B98012190472F
:1022C0005D28F4D1B9F1000F09D0002003A951F81D
:1022D0002020D24341F82020401C0828F7DB03AB24
:1022E0002069002820794FEA40701ED05B462246C4
:1022F000CDF80080CDE901970D9900286FF001001D
:1023000020DAFEF7EBFD1FE0C11703AA00EBD16155
:102310004B1121F01F0102EB8302411A13680120C7
:10232000884003431360C7E719E00D99224600284F
:102330006FF00100009702DAFEF7CCFC04E0FEF734
:1023400049FC01E0FEF753FD00280ADA401C06D1E3
:102350000C9820B14FF0FF300FB000F00DB8504690
:10236000FAE7E90701D10AF1010A064400200C90BE
:1023700054E60000CCCCCC0C30BCBDE8C08F0000D3
:102380002DE9F047814616468AB0354878440DC895
:102390008DE80D0032487844801C03AC0DC884E8F9
:1023A0000D0041F69B300844372190FBF1F290FB81
:1023B000F1F5A5F1800501FB12041B3C02D5644236
:1023C000012000E00020DFF898A080460027FA44B2
:1023D000AAF1BE0A0EE0E0070AD03246684607EBD3
:1023E000470101230AEB810101F018FA8DE807008B
:1023F00064107F1C002CEED1194F7F44AE3F19E0D2
:10240000E80715D007EB04100DF1180A90E80E004C
:102410008AE80E00C068F04201D19819089032464F
:10242000012306A903A801F0F9F903AB83E807002B
:102430006D10641C002DE3D14FF001033246694654
:10244000B8F1000F03A802D001F0BEF901E001F0DD
:10245000E5F9C9E90001C9F808200AB0BDE8F0872C
:1024600074200000CA68431C0FD00D4B1A420CD1D7
:10247000D3070AD081F825004B680B6300238B60DB
:1024800012F0C06F0B6003D004E04FF0FF307047D4
:1024900042F00072034B1A40034B1A43CA60704764
:1024A00080200800BFFFDFFF0010480010B5044681
:1024B000AFF300802046BDE81040FDF71ABF0000D2
:1024C000004870470800002010B5FFF73BFD00688A
:1024D00010BD10B50446FFF735FD046010BD0000C7
:1024E0002DE9FF4F1F464FF03C0987B04FF00042E7
:1024F000DDE9141001F10108DDF858A002EA4050AE
:102500000390002005908346054604460490B9696F
:10251000461E08988847AAF1010A0290BAF1000FF6
:102520003BDD02982E2815D01021FFF7B7F90028BF
:102530002EDB4FF0010B0599014317D0B9F1000FC5
:102540000BDB4A46C117FFF701FD05430C43A9F118
:10255000040905E0012004900BE008B145F00105F5
:1025600001200590049820B9361D02E0049800B1BE
:10257000361FB969089808F101088847BBF1000FB8
:10258000AAF1010A0290C9D00999C1F80080C5E7F3
:102590000298702808D0502806D0F9690898884712
:1025A000BBF1000F14D04FE0002002900120BBF1DE
:1025B000000F049009D0B969089808F1010888470C
:1025C000AAF10109B9F1000F07DCF96908988847F9
:1025D0006FF001000BB000F013B92B2804D02D28A8
:1025E0000CD14FF0FF300490B969089808F1010848
:1025F0008847A9F10109B9F1000FE6DD411CE4D0DB
:102600000A21FFF74BF90028DFDB029908F10108E6
:1026100001EB810100EB41000290B96908988847FD
:102620000A21FFF73BF9099AA9F10109B9F1000F55
:10263000C2F8008001DD0028E7DAF96908988847C8
:102640000499029800FB016655EA040004D004F0E6
:102650004041090002D006E0039898E0A40044EA53
:102660009574AD00B61E04F00041080002D16D194A
:102670006441761E159810F0240F03D04FF00B091B
:102680005C4803E04FF028096FF07D008246564514
:1026900007DAAAEB06018944B9F1410F01DD4FF0D9
:1026A000410901200021A9F10102FFF74FFC024678
:1026B00028400B462140084301D0012100E00021C1
:1026C000501E029143F1FF3128402140084301D0C0
:1026D000012000E000200299834651EA0B014FD00F
:1026E000002108464FF00000039900F4400039B182
:1026F00000EB80004FF4400100EBD07001EA600075
:102700008015012802DD4FF0FF3000E013D0401C9F
:1027100036D0029860B3BBF1000F0CD14A460120BD
:102720000021FFF713FC28402140084301D001207D
:1027300000E00020E0B101204A460021FFF706FC3E
:10274000034640190A4661412D1A8C4111D3B9F153
:10275000400F09DD159810F0240F02D0AAF13406BD
:1027600003E0AAF1170600E0761C00254FF00044B4
:1027700006E05B1E42F1FF3220EA030521EA020473
:10278000CAF10100B04206DA1B49039808430190E0
:10279000002000900EE0039AC4F3D321E80A0A4314
:1027A000164940EA44500A433146CDE900026846E2
:1027B00001F0A7FA159810F0240F0BD01598C00758
:1027C00015D13868DDE90012031D3B600068C0E9DF
:1027D00000120CE002A8694601F08AFA1598C007B9
:1027E00005D13868029A011D3960006802604046D0
:1027F000F0E6000002FCFFFF0000F07F0000F03F69
:1028000030BCBDE8C08F00002DE9FF4F92461D4649
:1028100085B04FF00041DDE9124BDDE914727F1EF7
:1028200001EA4B50414940F0FF4940EA01080021CC
:1028300022F020004928049102D04E2828D04CE0F4
:102840003BA0012607C88DE80700A9690698641C0B
:1028500088477F1E014606D41DF8060018B121F0F6
:10286000200181420BD0E96906988847032E34D0B5
:10287000082E32D06FF0010009B000F05FB8761C6E
:10288000032E01D0082EE0D1601CCAF80000DCE75E
:10289000A9690698641C88477F1E2AD420F020006E
:1028A000412826D1A9690698641C88477F1E20D438
:1028B00020F020004E281CD1A9690698641C884786
:1028C0007F1E48F4002849F48009CAF8004001D46A
:1028D000282806D0E969069888475FEACB7012D0AD
:1028E00022E0A9690698641C88477F1E01D400284D
:1028F00003DAE96906988847BCE72928F1D1641C06
:10290000CAF80040E9E71BF0240F07D028680499B3
:10291000031D2B600068C0E9001805E02868021D4F
:102920002A600068C0F800902046A5E70000F07F0C
:10293000494E46494E4954590000000030BCBDE89C
:10294000C08F00000000000030B44FF0013C50F890
:10295000042B51F8043BCCFA52F4D51A20D1FCB91F
:1029600050F8042B51F8043BCCFA52F4D51A17D185
:10297000B4B950F8042B51F8043BCCFA52F4D51AF0
:102980000ED16CB950F8042B51F8043BCCFA52F438
:10299000D51A05D1002CDAD030BC4FF000007047BA
:1029A00029BAB1FA81F111F01801D1F12000844067
:1029B000F2D1CA40CB4012F0FF0213F0FF0330BC4B
:1029C000D01A704701491820ABBEFEE7260002006E
:1029D0007047000041F24C01C4F20201086840F067
:1029E0000400086040F60002C4F60002106840F4DB
:1029F00080601060106820F40060106040F6080CE1
:102A0000C4F6000CDCF8000020F44060CCF80000B4
:102A1000DCF8000040F44060CCF8000040F604030D
:102A2000C4F60003186820F02000186040F60C017E
:102A3000C4F60001086820F480600860086820F48B
:102A400000600860106840F480501060106820F446
:102A500000501060DCF8000020F44050CCF800007A
:102A6000DCF8000040F44050CCF80000186820F07A
:102A700040001860086820F480500860086820F45E
:102A800000500860106840F480301060106820F436
:102A900000301060DCF8000020F44030CCF800007A
:102AA000DCF8000040F44030CCF80000186820F456
:102AB00080701860086820F480300860086820F48E
:102AC00000300860106840F480201060106820F426
:102AD00000201060DCF8000020F44020CCF800005A
:102AE000DCF8000040F44020CCF80000186820F426
:102AF00000701860086820F480200860086820F4DE
:102B000000200860106820F080601060106820F0DD
:102B100000601060086820F080600860086820F09D
:102B2000006008607047000080B500F0BBFA032821
:102B300003D0FFE700F034FBFFE780BD80B582B033
:102B40004EF21001CEF20001002008604EF2140394
:102B5000CEF2000343F67F02C0F201021A604EF289
:102B60001802CEF200021060086840F0020008600F
:102B7000086840F001000860086840F00400086040
:102B80004FF0FF30019000F02FFA0198012100F082
:102B900043FA02B080BD000083B042F20001C4F2EB
:102BA0000201086820F007000860086840F0020091
:102BB000086041F20001C4F20201086840F480702C
:102BC0000860FFE741F20000C4F20200006840051F
:102BD000002801D4FFE7F5E71020029041F204013C
:102BE000C4F20201086820F0F8500860029A0868F0
:102BF00040EA0260086041F20001C4F20201086884
:102C000020F080700860FFE741F20000C4F202008B
:102C100000688001002801D5FFE7F5E741F20C01CB
:102C2000C4F202010191086820F0030008600868FE
:102C300040F0020008600868142262F30E20086069
:102C40000868012262F306100860086820F0C0607E
:102C50000860086840F08070086041F20001C4F22A
:102C60000201086840F080700860FFE741F2000050
:102C7000C4F2020000688001002801D4FFE7F5E7F4
:102C800041F20801C4F20201086820F00300086064
:102C9000086840F003000860FFE741F20800C4F252
:102CA0000200006800F00C000C2801D0FFE7F4E7F8
:102CB00041F20801C4F20201086820F0F000086047
:102CC000086820F4E0600860086820F4605008603C
:102CD00041F20001C4F20201086820F0806008603F
:102CE000FFE741F20000C4F2020000684001002842
:102CF00001D5FFE7F5E741F21001C4F202010091AE
:102D0000086820F4FE400860086840F4C05008607D
:102D1000086840F400300860086840F480300860BB
:102D200041F20001C4F20201086840F080600860CE
:102D3000FFE741F20000C4F20200006840010028F1
:102D400001D4FFE7F5E741F28801C4F20201086807
:102D500020F44000086041F26001C4F202010868FA
:102D600040F40010086003B07047000041F24C01CD
:102D7000C4F20201086840F0010008604FF0904181
:102D8000086820F010000860086840F02000086023
:102D9000086820F040000860086840F08000086083
:102DA0000822C4F60002106840F0300010600421D0
:102DB000C4F60001086820F004000860106840F0C4
:102DC000C0001060086820F0080008600C21C4F6FC
:102DD0000001086840F010000860086820F020003A
:102DE0000860086840F040000860086820F0800033
:102DF00008602021C4F60001086840F48070086073
:102E0000086840F400700860086840F4806008605A
:102E1000086820F400600860086840F4805008608A
:102E2000086840F400500860086840F4804008607A
:102E3000086820F4004008607047000041F2580123
:102E4000C4F20201086840F40030086041F28801D1
:102E5000C4F20201086840F004000860086820F02D
:102E6000080008607047000082B00190019864215A
:102E7000414344F62510C2F29240A1FB0020091AFA
:102E800000EB510080080090FFE7009801380090A7
:102E900008B1FFE7F9E702B07047000081B0009089
:102EA0000099086820F0010008600099086820F087
:102EB000102008600099086820F40040086000991C
:102EC000486820F4805048600099486820F4005019
:102ED0004860009942F28D00C8600099086840F08F
:102EE000080008600099086840F004000860009934
:102EF000086840F00100086001B0704781B00090A0
:102F0000FFE70098C0698006002801D4FFE7F8E7D2
:102F10000098808CC0B201B07047000080B584B0CA
:102F200003900291019200200090FFE70098019920
:102F3000884216D2FFE7FFE70398C0690006002821
:102F400001D4FFE7F8E702980099405C03990885EF
:102F500049F64040FFF788FFFFE7009801300090F6
:102F6000E4E7FFE70398C0694006002801D4FFE7C3
:102F7000F8E70399C86920F04000C86104B080BD3B
:102F800081B08DF803009DF90300002812D4FFE7FB
:102F90009DF9031001F01F02012090404A094EF2F2
:102FA0008011CEF2000141F82200BFF34F8FBFF332
:102FB0006F8FFFE701B0704781B08DF803009DF976
:102FC000030000280ED4FFE79DF9031001F01F0253
:102FD000012090404A094EF20011CEF2000141F862
:102FE0002200FFE701B0704781B08DF803009DF922
:102FF000030000280ED4FFE79DF9031001F01F0223
:10300000012090404A094EF20011CEF2000141F831
:103010002200FFE701B0704782B08DF807000091F1
:103020009DF9070000280AD4FFE7009800019DF9E8
:1030300007104EF20042CEF2000288540BE00098D6
:1030400000019DF8071001F00F014EF61452CEF268
:1030500000028854FFE702B07047000080B582B0DC
:10306000019044F20040C4F20000FFF747FF8DF8E2
:1030700003009DF8030002B080BD000080B584B05D
:103080000390029103988DF8070044F20040C4F2C7
:1030900000000DF107010122FFF740FF039804B083
:1030A00080BD000040F20000C2F2000090F9000074
:1030B0007047000080B584B000200390FFF76CFDDE
:1030C000FFF788FCFFF73AFDFFF750FEFFF7B6FE6B
:1030D00044F20040C4F20000FFF7E0FE032000F0DD
:1030E000A9F84FF0FF30FFF74BFF44F23C40C0F629
:1030F0000000FDF74BF9FFE744F26A40C0F600001C
:1031000040F21011C2F200010191FDF74BF9019854
:103110000078312808D0FFE740F21010C2F200001A
:10312000007872280ED1FFE7012000F083F84FF0FD
:10313000FF30FFF741FF44F25540C0F60000FDF7B5
:1031400025F92CE040F21010C2F20000007832287D
:1031500008D0FFE740F21010C2F2000000786C289F
:103160000ED1FFE7022000F065F84FF0FF30FFF7C7
:1031700023FF44F24E40C0F60000FDF707F90DE0D2
:10318000032000F057F84FF0FF30FFF7F9FE44F24C
:103190006040C0F60000FDF7F9F8FFE7FFE7ABE796
:1031A00040F20000C2F2000090F90000012818D19E
:1031B000FFE740F21110C2F200000078062808DC98
:1031C000FFE740F21111C2F20001087801300870E7
:1031D00006E040F21111C2F2000100200870FFE782
:1031E00017E040F21110C2F200000078012808DB5D
:1031F000FFE740F21111C2F20001087801380870AF
:1032000006E040F21111C2F2000107200870FFE74A
:10321000FFE740F21110C2F20000017844F21C40B6
:10322000C0F6000050F8210040F61401C4F6000179
:103230000860704781B08DF803009DF8030040F2EC
:103240000001C2F20001087001B070475FEA400C53
:1032500008BF91F0000F4FEA8C234FEAC12243EAE6
:1032600051514FEA1C5018BF00F5F0404FEA3000B2
:1032700018BF41F000415FEA6C5C00F02980BCF1AE
:10328000FF3F08BF40F080407047130C06BF120498
:103290004FF0100C4FF0000C130E04BF12020CF193
:1032A000080C130F04BF12010CF1040C930F04BFA0
:1032B00092000CF1020CD30F04BF52000CF1010C70
:1032C00011464FF00002A0F11F00A0EB0C00704768
:1032D00011F0004F08BF704731F000413FF4D5AF07
:1032E0000B0C06BF09044FF0100C4FF0000C0B0E36
:1032F00004BF09020CF1080C0B0F04BF09010CF10B
:10330000040C8B0F04BF89000CF1020CCB0F04BF1F
:1033100049000CF1010CCCF1200322FA03F341EA3D
:10332000030102FA0CF2A0EB0C0000F1010070475F
:1033300023F07F4720F07F4C80EA030000F000403C
:10334000ACEB070303F57C5303F1FF032DE9804940
:1033500009B44FEA144324EA03484FEA154B25EA1F
:103360000B4E0FF2042606EB13273E7803FB06678D
:10337000C7F5000707FB06F64FEAD64606F1020638
:103380004FEA543707FB066CCCF1005C4FEA1C4750
:103390002CEA074C0CFB06F507FB06F404EB15467C
:1033A0004FEA961649085FEA320234BF00204FF018
:1033B00000404FEAD13706FB07FC4FEA1C4C0CFBE0
:1033C0000BF7D21B03FB0CF761EB07010CFB0EF7AD
:1033D000B0EB074072EB17420CFB08F734BFA2EBCF
:1033E0000742B2EB074261EB17414FEA0C444FEA48
:1033F000910706FB07FC4FEA1C4C0CFB0BF7B0EBEC
:10340000C74072EB573203FB0CF734BFA2EBC74245
:10341000B2EBC74261EB57310CFB0EF7B0EBC700C4
:1034200072EB57720CFB08F734BFA2EBC702B2EB8A
:10343000C70261EB57714FEA816141EA92114FEA8D
:10344000826242EA90124FEA806004EBCC04039F50
:103450004FEAD13706FB07FC4FEA1C4C0CFB0BF77D
:10346000D21B03FB0CF761EB07010CFB0EF7B0EB73
:10347000074072EB17420CFB08F734BFA2EB074280
:10348000B2EB074261EB17414FEA8C5504EB9C24E9
:103490004FEA910706FB07FC4FEA1C4C0CFB0BF7AD
:1034A000B0EBC74072EB573203FB0CF734BFA2EB13
:1034B000C742B2EBC74261EB57310CFB0EF7B0EBE2
:1034C000C70072EB57720CFB08F734BFA2EBC702C0
:1034D000B2EBC70261EB57714FEA816141EA921189
:1034E0004FEA826242EA90124FEA806015EB4C2567
:1034F00044F100044FEAD13706FB07FC4FEA1C4CAD
:103500000CFB0BF7D21B03FB0CF761EB07010CFB69
:103510000EF7B0EB074072EB17420CFB08F734BF15
:10352000A2EB0742B2EB074261EB17414FEA813150
:1035300041EA92414FEA823242EA90424FEA8030B9
:103540004FEA0C7615EB1C1544F1000448EA0343DE
:103550004EEA0B484FF0000EB2EB080C71EB03077C
:1035600024BF624639464EEB0E0E4FF0000B00189A
:10357000524149414BEB0B0BB2EB080C71EB0307CB
:103580007BF1000B24BF624639464EEB0E0E4FF026
:10359000000B0018524149414BEB0B0BB2EB080CEE
:1035A00071EB03077BF1000B24BF624639464EEBFB
:1035B0000E0E51EA020718BF46F0010616EB0E7612
:1035C00055F1000254F1000103D5BDE88901BDE8C1
:1035D0000088BDE88901BDE80048B619524141EBB9
:1035E0000101A3F10103704780807F7E7D7C7B7A9F
:1035F0007978777676757473727171706F6E6E6D9F
:103600006C6C6B6A6A696868676666656464636344
:1036100062616160605F5F5E5E5D5D5C5C5B5B5ACA
:103620005A59595858575756565555555454535337
:1036300052525251515050504F4F4F4E4E4D4D4D92
:103640004C4C4C4B4B4B4A4A4A49494948484847DD
:10365000474747464646454545444444444343431B
:10366000434242424241414110B546EA06464FEAD2
:10367000164646EA42564FEAD22242EA41524FEA01
:10368000D121A3F57053A3F1010300F02FF820F02E
:10369000004000F0004700F1020CBCF5006F01EBA8
:1036A0000050114640EA070000D210BDBAF1000FE9
:1036B0000AD01CB503B44FF004004FF004014FF0E2
:1036C00000000FBCBDE810404FF00001BBF1010F3E
:1036D000B9BF04484FF0FF310348002140EA07001A
:1036E00010BD00BFFFFFEF7F0000F07F9C46002B66
:1036F00030D477002BD04FEA37071CB503B44FF016
:1037000010004FF01001BAF1000F06D0BCF1000F0D
:10371000DCBF40F0080040F008014FF000000FBC93
:10372000BDE810400BF1010BBBF1010F08BF5FEAD0
:10373000170722BF12F1010211F101014FF0004100
:1037400043F1000300F0004043EA00007047F9D362
:103750005708D0E746EA06464FEA164613F1400FEF
:103760001FDD13F1200FDFBF16430A46002120336F
:103770005B42BED0C3F1200746EA06464FEA164632
:1037800002FA07F746EA070622FA03F2C3F1200716
:1037900001FA07F742EA070221FA03F14FF00003AA
:1037A000A7E746EA020646EA06464FEA164646EA12
:1037B0000106BCBF46EA0646360C4FF000034FF048
:1037C00000024FF0000194E72DE9804C70B49A4656
:1037D000934691E8380007C831EA400C48BF34EA04
:1037E000430C03D5FFF7A4FDFFF780FFF0BCBDE855
:1037F000008C2DE9804C70B49A46934691E83800CD
:1038000007C831EA400C48BF34EA430C03D5FFF740
:103810008FFDFFF729FFF0BCBDE8008C2DE9804C3F
:1038200070B49A46934691E8380007C810F0804F6C
:1038300008BF13F0804F03D100F01AF8FFF756FFCE
:10384000F0BCBDE8008C2DE9804C70B49A469346DC
:1038500091E8380007C810F0804F08BF13F0804F80
:1038600003D100F005F8FFF7FFFEF0BCBDE8008CC7
:1038700020F07F4723F07F4C80EA030000F00040F7
:1038800007EB0C03A3F57C53A3F1FE0392F0000FAA
:1038900000F0B38095F0000F00F077802DE901492A
:1038A0004FEA114021EA00484FEA144624EA06474D
:1038B00000FB06FC08FB06F607FB08F818EB0648B9
:1038C0004CEB164C00FB07F718EB07484CEB174086
:1038D0004FEA124B22EA0B4E4FEA154625EA0647FD
:1038E0000BFB06FC0EFB06F607FB0EFE1EEB064E60
:1038F0004CEB164C0BFB07F71EEB074E4CEB174B34
:1039000018EB0B0840F1000018EB0E0B58EB000809
:1039100040F100008F1A4FF000014FF000063CBF4D
:10392000C943661B14BFB5EB040C00213CBFC9435F
:10393000F61B4FEA174427EA04454FEA1C472CEAD6
:10394000074C04FB076205FB07F70CFB05F616EBBB
:10395000074642EB174204FB0CFC16EB0C4642EB0D
:103960001C421BEB060658EB020241414EEA8E0E4A
:1039700046EA9E0601D5BDE80189B619524141EBE0
:103980000101A3F10103BDE801894FEA144524EACE
:1039900005464FEA114721EA074C05FB07F406FBF1
:1039A00007F70CFB06F111EB074144EB174405FB4D
:1039B0000CFC11EB0C4144EB1C444FEA124722EA89
:1039C000074C05FB07F206FB07F70CFB06F616EBA8
:1039D000074642EB174205FB0CFC16EB0C4642EB8C
:1039E0001C456A1854F1000148BF7047B61952418E
:1039F00041EB0101A3F10103704795F0000F37D0AF
:103A00004FEA114221EA02464FEA144724EA074CE2
:103A100002FB07F106FB07F70CFB06F414EB074467
:103A200041EB174102FB0CFC14EB0C4441EB1C4135
:103A30004FEA154725EA074C02FB07F506FB07F797
:103A40000CFB06F616EB074645EB174502FB0CFC94
:103A500016EB0C4645EB1C42121951F1000148BF10
:103A60007047B619524141EB0101A3F101037047C0
:103A70004FEA144524EA05464FEA114721EA074C6C
:103A800005FB07F106FB07F70CFB06F212EB0742FA
:103A900041EB174105FB0CFC12EB0C4251EB1C41B6
:103AA0004FF0000648BF7047921841EB0101A3F1A7
:103AB0000103704703B401984100009850EAC12007
:103AC00018BF04204A0D18BF40F0010040F2FF72F9
:103AD000B2EB515F08BF40F00200012808BF05208B
:103AE00002B070470000000030B52DED048B81B0AE
:103AF000B0EE408AF0EE608A6A4651EC180B00F096
:103B000013F900989FED329B7E300090002821DC55
:103B100053EC192B51EC180B00F0BEF91AD0002110
:103B200040F608004FF00000044651EC180B00F07E
:103B30006DF908EE100A40F6080004EA00014FF0A3
:103B40000000B5EEC08AF1EE10FA04BF0220FEF7C5
:103B5000C0FC2DE00098FF2830DB002108464FF024
:103B6000000000F4400553EC192B51EC180B00F049
:103B700009FB8CBF002401240220FEF7AAFC9FED64
:103B8000168A4DB1002C0CBF4FF400004FF480009A
:103B9000A84218BF9FED118A042108464FF000008B
:103BA000002C01BFB1EE480A01B0BDEC048B30BD62
:103BB000B0EE480A01B0BDEC048B30BD51EC180BDF
:103BC00000F024F901B000EE100ABDEC048B30BD0A
:103BD00000000000000000000000807FFFFF7F7FEA
:103BE00030B540F2FF742DED048BF0EE608A18EED4
:103BF000901A85B0B0EE408A9FED2B9B05468DED67
:103C0000008B34EA115147D053EC192B51EC180BAF
:103C100000F042F940D02A4651EC180B00F033FB7B
:103C200041EC180B18EE900A8DED008B34EA105021
:103C30001CD053EC192B51EC180B00F02DF92BD1A3
:103C40000220FEF746FC00F043F810EE901A18EE42
:103C5000900A8DED020B8DED008B61F31E00039039
:103C60009DED020B05B0BDEC048B30BD0220FEF7CC
:103C700030FC00F01DF810EE901A18EE900A8DED51
:103C8000020B8DED008B61F31E0003909DED020B86
:103C900005B0BDEC048B30BD05B0B0EE480AF0EEC7
:103CA000680ABDEC048B30BD00000000000000007D
:103CB0009FED050B10B553EC102B51EC100B00F0E1
:103CC00063F941EC100B10BD000000000000007013
:103CD0009FED050B10B553EC102B51EC100B00F0C1
:103CE00053F941EC100B10BD000000000000001063
:103CF00010B5044691ED000BFFF7F6FE84ED000AC7
:103D000010BD10B5044690ED000B0846FFF768FFA4
:103D100084ED000B10BD30380A2801D20120704715
:103D2000002070470000000010B582B01446CDE9B5
:103D300000010023009A2360194B21F000409842B3
:103D40002ADA024328D0B0F5801FA8BF226810DA13
:103D50009FED150B53EC102B9DED000B51EC100B50
:103D600000F012F9CDE900016FF0350221F00040BA
:103D700022600F4B6FF31E5103EB20501044206064
:103D800041F0FF5040F0005001909DED000B00BF4E
:103D900002B051EC100B10BD9DED000BF8E70000D8
:103DA0000000F07F00000000000000000000504311
:103DB00002FCFFFF10B500290AD00878002807D0C0
:103DC00005487844FEF7C0FD002801D0002010BD52
:103DD0000248784410BD0000DE060000D606000050
:103DE00010B500290AD00878002807D00548784483
:103DF000FEF7AAFD002801D0002010BD024878443B
:103E000010BD0000CE060000C606000021F00042F2
:103E100001F00043A2F16052B2F5801F28BFD2F139
:103E20007F6C0BD95FEA001C43EAC20242EB507080
:103E300018BF704728BF20F001007047B2F5801FFF
:103E4000BCBF184670474FEA410C1CF5001F02D258
:103E5000084600F0DAB970B500F040F900000089BA
:103E6000FFF7F6BF4FF00040A0F58000704700005C
:103E700002494FF0000000F0D4B900BF0000F87F05
:103E8000491058BFC1F140415B1058BFC3F14043D6
:103E90008B42EFF30080704751EA030C17D41CF5F6
:103EA000801F58BFBCF5801F00F10680994218BFE3
:103EB000704708BF9042704707D711F5801F58BF61
:103EC00013F5801F19D499427047894270471CF539
:103ED000801F08D5BCF5801FF7D58B4218BF7047EF
:103EE00008BF824270474FF4001C1CEB410F38BFE3
:103EF0001CEB430F01D28B42704770B500F0EEF817
:103F0000922449004FF000514FF08053FFF7B8BFA3
:103F100051EA030C17D41CF5801F58BFBCF5801F55
:103F200000F10680994218BF704708BF9042704761
:103F300007D711F5801F58BF13F5801F19D4994278
:103F40007047894270471CF5801F08D5BCF5801F5B
:103F5000F7D58B4218BF704708BF824270474FF4B5
:103F6000001C1CEB410F38BF1CEB430F01D28B42EE
:103F7000704770B500F0B2F8922449004FF000513C
:103F80004FF08053FFF77CBF70B5DFF848C11CEAE3
:103F9000111E1EBF1CEA13159EEA0C0F95EA0C0FAA
:103FA00000F06F8081EA03044EEAD47EAE4421EA39
:103FB0004C1123EA4C1341F4801143F48013AEF109
:103FC0007F7EA1FB024CA0FB0365361955EB0C0567
:103FD000A1FB034C4CF10003A0FB021C16EB0C06EA
:103FE000654153F10003094218BF46F0010613F47E
:103FF000007F0BD14FEA03314FEA053041EA1551FA
:1040000040EA165034036FF003020AE04FEAC3217E
:104010004FEAC52041EA555140EA5650F4026FF08C
:10402000020202EB2E4201EB025585EACE710AD064
:104030005FEA440C18BF24F0004450F1000041F145
:10404000000120EAD47040F2FE7C624500D270BDCF
:10405000A84214BF4FF080444FF04044002E08BFE8
:104060000024BEF1806FA8BFA1F1C041BDE870403F
:1040700080F2828001F1C04101F000414FF0000068
:1040800070470CEA13159EEA0C0F18BF95EA0C0F47
:1040900006D081EA030E4FF000000EF0004170BD23
:1040A00000F01CF88900013E00F007B800F009B8E4
:1040B0004FEA430C5FEA5C5C08D081EA030100F040
:1040C0005BB84FEA410C5FEA5C5CF6D102494FF005
:1040D000000070470000FF070000F87F0EF1020E9D
:1040E0002EF0030E5EF8046B364205D4012A43EB32
:1040F000030515F5001F12D8012841EB010C1CF532
:10410000001F0CD80ED14FEAD17C0CEB4C0C0CF1FB
:10411000020C15F5001F08BF4CEBD37C04E04FF0F8
:10412000080C01E04FEAD37C0CEB4C0526FA05F6AF
:1041300006F00706B6F1040C06D20EEB860CBDE8BD
:1041400070404CF0010C6047DFE80CF0090B0202F4
:104150004FF00041A1F500214FF0000070BD19465D
:104160001046012851EB010418BFD4F5001484BF98
:10417000002001F0004170BD0808A0F500114FEAD1
:104180003101704753EA010C17D41CF5801F58BF4A
:10419000BCF5801F00F106808B4218BF704708BF36
:1041A0008242704707D713F5801F58BF11F5801F53
:1041B00019D48B4270479B4270471CF5801F08D56D
:1041C000BCF5801FF7D5994218BF704708BF9042D1
:1041D00070474FF4001C1CEB430F38BF1CEB410F22
:1041E00001D2994270470FB40CBC03BCFFF7C1BEAB
:1041F000F1EE100A4FF6FF71C0F2C03120EA010063
:1042000040F04070E1EE100A7047FF2141EAD050C3
:10421000C00570474FF000007047FDF740B8FDF74C
:1042200077B90CF00F03092B08BF082000F05F805E
:104230000A2B0BD0082B18BF704708BF1CF0400F8B
:104240000AD04FF000004FF0000170471CF0400F03
:1042500018BF4FF0004070471CF0100F08D000F05E
:104260007F4220F0704342EAD3014FEA4370704727
:1042700000F0604021F07F4242EA000201F07F40FE
:1042800040EA727070474FF0FF0C4CF4E06C1CEA8F
:1042900011531CBF9CEA030C9445C2BFDA4201EBE8
:1042A00002517047002B0DD0BCF1000F0FD001F070
:1042B0000041002AA4BF41F0E04141F07F614FF08E
:1042C0000000704701F000414FF00000704750EAD5
:1042D00001334FF09B0C18BF4CF0806C7FF4C8ADDD
:1042E0007047FDF70FBCFEF7FBB8FEF78DBA1CF464
:1042F000801F11D01CF4E02F03D06FEACC314900AD
:1043000070474FF04050EFF3008222F0704242EAD3
:10431000000282F3008870474FF0000070470000F1
:1043200000000000000000003031323334353637F1
:1043300038394142434445464030580030313233E9
:1043400034353637383961626364656640307800E9
:10435000040000080000000000000002000100004E
:104360001030313233343536373839616263646541
:10437000667870003031323334353637383941425F
:10438000434445465850000002400000000000A091
:104390000000000005400000000000C80000000010
:1043A0000C4000000000409C00000000194000008C
:1043B0000020BCBE0000000034400000BFC91B8EBE
:1043C00000000004B5400000504BCFD06607E2CF9C
:1043D000010000006C4100003E8251AADFEEA734CC
:1043E00001000000D9420000DCB5A0E23A301F977E
:1043F000FFFFFFFFB4450000FD25A0C8E9A3C14FA2
:10440000FFFFFFFFFF3F00000000008000000000F2
:10441000FF3F0000000000800000000020020000BC
:104420002000000020010000000100004001000009
:1044300040000000400200000002000050726F6760
:1044400072616D205374617274732E0D0A00636F74
:10445000756E746572636C6F636B776973650A0060
:1044600053746F7070696E670A0025730000000056
:10447000D04500080000002008000000EC01000802
:10448000D845000808000020100700000C020008B2
:10449000000000000000F07FFFFFFFFFFFFFEF7F45
:1044A0001C00000043000000F8FFFFFF0C000000AC
:1044B0000E0000000F0000002E00000010010000A0
:1044C00043000000F8FFFFFF0040404040404040F4
:1044D00040404141414141404040404040404040D7
:1044E000404040404040404040050202020202027B
:1044F00002020202020202020220202020202020CA
:1045000020202002020202020202909090909090DD
:10451000101010101010101010101010101010109B
:10452000101010100202020202028888888888880F
:1045300008080808080808080808080808080808FB
:104540000808080802020202400000000000000003
:10455000000000000000000000000000000000005B
:10456000000000000000000000000000000000004B
:10457000000000000000000000000000000000003B
:10458000000000000000000000000000000000002B
:10459000000000000000000000000000000000001B
:1045A000000000000000000000000000000000000B
:1045B00000000000000000000000000000000000FB
:1045C00000000000000000000000000000000000EB
:0845D0000300000000000000E0
:040000050800018965
:00000001FF
